:100000000C9407030C942F030C942F030C942F03D0
:100010000C942F030C942F030C942F030C942F0398
:100020000C942F030C942F030C942F030C942F0388
:100030000C942F030C942F030C942F030C942F0378
:100040000C941D040C942F030C942F030C942F0379
:100050000C942F030C942F030C942F030C942F0358
:100060000C942F030C942F030C942F030C942F0348
:100070000C942F030C942F030C942F0305A84CCD44
:10008000B2D44EB93836A9020C50B9918688083CD2
:10009000A6AAAA2ABE000000803F080C205F00002C
:1000A00000000000000000000000000020202020D0
:1000B0002020002000000028505000000000000018
:1000C000000000002828FC2850FC505000000020B0
:1000D00078A8A0603028A8F02000000048A8B05000
:1000E000283454480000000020505078A8A8906C94
:1000F00000000040408000000000000000000004FC
:1001000008101010101010080400004020101010EB
:1001100010101020400000000020A87070A82000DF
:1001200000000000202020F8202020000000000017
:10013000000000000000004040800000000000F8C7
:10014000000000000000000000000000000000406F
:1001500000000008101010202040404080000000E7
:1001600070888888888888700000000020602020BF
:10017000202020700000000070888810204080F847
:100180000000000070880830080888700000000037
:10019000103050509078101800000000F88080F067
:1001A0000808887000000000709080F088888870CF
:1001B00000000000F8901020202020200000000007
:1001C000708888708888887000000000708888882F
:1001D00078084870000000000000200000000020A7
:1001E00000000000000000200000002020000004AB
:1001F0000810204020100804000000000000F80053
:1002000000F8000000000040201008040810204002
:1002100000000000708888102020002000000000EE
:10022000708898A8A8B8807800000000202030507E
:10023000507848CC00000000F0484870484848F02A
:1002400000000000788880808080887000000000B6
:10025000F0484848484848F000000000F84850700E
:10026000504048F800000000F8485070504040E00E
:1002700000000000384880809C8848300000000062
:10028000CC484878484848CC00000000F82020209E
:10029000202020F8000000007C101010101010909A
:1002A000E0000000EC485060505048EC00000000B6
:1002B000E0404040404044FC00000000D8D8D8D87E
:1002C000A8A8A8A800000000DC486868585848E8BA
:1002D000000000007088888888888870000000000E
:1002E000F0484870404040E0000000007088888876
:1002F00088E8987018000000F0484870504848ECB2
:100300000000000078888060100888F0000000007D
:10031000F8A820202020207000000000CC48484889
:100320004848483000000000CC4848505030202059
:1003300000000000A8A8A870505050500000000015
:10034000D8505020205050D800000000D8505020E5
:100350002020207000000000F8901020204048F875
:1003600000000038202020202020202038000040DD
:1003700040402020101010080000007010101010D5
:10038000101010107000002050000000000000004D
:1003900000000000000000000000000000FC002041
:1003A000000000000000000000000000000000301D
:1003B0004838483C00000000C04040704848487041
:1003C00000000000000000384840403800000000F5
:1003D000180808384848483C000000000000003079
:1003E00048784038000000001C2020782020207829
:1003F000000000000000003C483040784438000015
:10040000C0404070484848EC0000000020000060F8
:10041000202020700000000010000030101010108C
:1004200010E00000C040405C507048EC000000004C
:10043000E0202020202020F800000000000000F034
:10044000A8A8A8A800000000000000F0484848EC58
:100450000000000000000030484848300000000064
:10046000000000F04848487040E0000000000038FC
:1004700048484838081C0000000000D8604040E0B0
:100480000000000000000078403008780000000004
:10049000002020702020201800000000000000D85C
:1004A0004848483C00000000000000EC4850302064
:1004B00000000000000000A8A870505000000000DC
:1004C000000000D8502050D800000000000000ECD0
:1004D0004850302020C00000000000781020207814
:1004E000000000181010102010101010180010102C
:1004F000101010101010101010100060202020108C
:1005000020202020600040A418000000000000000F
:10051000000000407A10F35A00A0724E1809001033
:10052000A5D4E80000E87648170000E40B54020068
:1005300000CA9A3B000000E1F50500008096980093
:10054000000040420F000000A086010000001027BC
:1005500000000000E803000000006400000000004C
:100560000A00000000000100000000002C76D8887E
:10057000DC674F0823DFC1DFAE59E1B1B796E5E391
:10058000E453C63AE651997696E8E6C28426EB89AA
:100590008C9B62ED407C6FFCEFBC9C9F40F2BAA547
:1005A0006FA5F490055A2AF75C936B6CF9676DC1DF
:1005B0001BFCE0E40D47FEF520E6B500D0ED902EE3
:1005C0000300943577050080841E080000204E0A41
:1005D000000000C80C333333330F986E128311417F
:1005E000EF8D2114893BE65516CFFEE6DB18D1844A
:1005F0004B381BF77C1D901DA4BBE4242032847271
:100600005E228100C9F124ECA1E53D27810411247B
:100610001FBECFEFD8E0DEBFCDBF12E0A0E0B1E05B
:10062000ECE2F8E602C005900D92AE39B107D9F7B9
:1006300016E0AEE9B2E001C01D92AC38B107E1F7B7
:1006400016E0CEE0D6E004C02297FE010E94BC2F47
:10065000CC30D107C9F70E94D3080C9414340C9401
:100660000000645170406D51714040F4813E91052D
:100670002CF420E0CC971CF021E001C020E0822F78
:100680000895EF92FF920F931F93CF93DF93C09142
:100690006E01D0916F01FE013197EE0FFF1FEE0F3B
:1006A000FF1FDF01A256BD4FED90FC90E056FD4FBD
:1006B000008111819E01FE01EE0FFF1FEE0FFF1F53
:1006C000EA56FD4F09C080819181958384838281A0
:1006D00093819783868334972150304012161306F6
:1006E00094F380916C01823061F0833024F4813086
:1006F00009F058C016C0833071F1843009F052C03F
:100700003AC020916D01213031F480919E02909188
:100710009F0205970FC080919E0290919F020596BF
:1007200015C020916D01223061F480919E0290915C
:100730009F02059690939F0280939E0220936C01E6
:1007400031C080919E0290919F02059790939F02E5
:1007500080939E0227C020916D01243031F4809156
:10076000A0029091A10205960FC08091A0029091E5
:10077000A102059713C020916D01233051F480919F
:10078000A0029091A10205979093A1028093A002EC
:10079000D5CF8091A0029091A10205969093A102DD
:1007A0008093A00260919E0270919F028091A002AE
:1007B0009091A1020E943103882319F481E0809373
:1007C000350420919E0230919F0280912E049091D9
:1007D0002F042817390751F52091A0023091A1026A
:1007E000809130049091310428173907F9F421964B
:1007F000D0936F01C0936E012197CC0FDD1FCC0FFA
:10080000DD1FFE01E256FD4FF182E082C056DD4F52
:100810001983088381E0809334048091320490919D
:10082000330401969093330480933204DF91CF9187
:100830001F910F91FF90EF9008951F920F920FB6A6
:100840000F9211242F938F939F93EF93FF93809197
:10085000760620917706F82FE0E0E20FF11DEA58C6
:10086000FB4F808190E090938900809388002F5FF8
:100870002093770680917706882331F4909176064D
:1008800081E0891B80937606FF91EF919F918F9174
:100890002F910F900FBE0F901F901895EEE6F0E08D
:1008A00080818260808385B585BD84B5826084BD8A
:1008B00085B5826085BD089515BC14BC10926E008C
:1008C00017BC16BC0895A1E8B0E08C9188608C93A9
:1008D000E0E8F0E08081816080838081806C8083AB
:1008E0008C9181608C930895109281001092800009
:1008F0001092890010928800109285001092840056
:10090000089586E394E00E94E30908952F923F92B0
:100910004F925F926F927F928F929F92AF92BF920F
:10092000CF92DF92EF92FF920F931F93DF93CF93BB
:10093000CDB7DEB72C970FB6F894DEBF0FBECDBF94
:1009400020917606922F80E08A589B4F6CE070E0F1
:100950008E010F5F1F4FA8010E945621892B09F0BD
:10096000C1C089819A810C9709F0C2C08091760636
:10097000F82FE0E0E258FB4F80819181A281B381A2
:1009800087559144A645B54409F0B2C0C8010B870C
:100990009C8780917606382E2224C1018A589B4F6D
:1009A00068E070E04B855C850E94562189819A81C0
:1009B000089709F09DC080917606D82ECC248AE74E
:1009C00094E0C80ED91EF601E080F1800281138107
:1009D00080917606582E4424F201EA58FB4F80811C
:1009E0009181A281B3818C34F9E49F07F3E5AF07CD
:1009F000F4E5BF0709F465C08D3429E4920723E5C7
:100A0000A20724E5B20738F486569D46A447B042B3
:100A100009F06EC010C08436F1E69F07F4E7AF0717
:100A2000F1E6BF0709F467C086569146A346B4476E
:100A300009F05EC046C0D801C7014097A109B109BD
:100A400085359105A105B10508F052C08091760663
:100A50008C831B828B819C818A589B4FB7014B856D
:100A60005C850E94562189819A81A0E0B0E08E15B4
:100A70009F05A007B107E1F5809176068E831D8260
:100A8000ED81FE81EA58FB4F8081813089F54EC0AF
:100A900080917606B82EAA2488E794E0A80EB91EA5
:100AA000F5018081823021F54EC0809176068887DD
:100AB0001F82EF81F885EA58FB4F86858031C1F4AB
:100AC0004EC08091620490916304A0916404B0913F
:100AD0006504E80EF91E0A1F1B1FC801B7010E941A
:100AE000162057CF71E0E72EF12C012D112D03C0F8
:100AF000EE24FF248701B701C8012C960FB6F894A5
:100B0000DEBF0FBECDBFCF91DF911F910F91FF9040
:100B1000EF90DF90CF90BF90AF909F908F907F909D
:100B20006F905F904F903F902F9008958091760640
:100B3000982E882488E794E0880E991EF40180811D
:100B4000813009F0A5CF809176068A871986E985DC
:100B5000FA85EA58FB4F8685883009F0A6CF809148
:100B60007606782E66248AE794E0680E791EF301F3
:100B70002081318140E050E060E673EE86E190E054
:100B80000E94682F215027BD04CFCF92DF92FF92A1
:100B90000F931F93DF93CF9300D0CDB7DEB70E94A2
:100BA00083249C01009709F089C086E394E06FEFED
:100BB0007FEF0E94D60C86E394E060E071E048E2AB
:100BC00050E02CED30E000E010E00E948E180E9412
:100BD00086046F3F71058105910509F018F423E043
:100BE00030E06CC060916204709163048091640491
:100BF0009091650461507E4F8F4F9F4F60707E7F54
:100C00000E9416209C01009709F058C0209176069A
:100C1000922F80E08A589B4F60E071E08E010F5F59
:100C20001F4FA8010E9456219C01009709F046C061
:100C300089819A818F3F910509F008F43FC0109295
:100C400077060E944E040E946304559AF1E0CF2E6D
:100C5000D12CC801F02E092F1091760680917606CE
:100C60009601281B3109922F88278A589B4F60E0F4
:100C700071E04F2D502F0E9456219C01009759F48E
:100C800089819A818F3F910531F028F08091760615
:100C90001817E1F3E1CF559810928100109280006F
:100CA00010928900109288001092850010928400A2
:100CB00015BC14BC10926E0017BC16BCC9010F9075
:100CC0000F90CF91DF911F910F91FF90DF90CF9008
:100CD0000895DF92EF92FF920F931F93CF93DF93CC
:100CE00086E394E06FEF77E00E94D60C20919E029D
:100CF00030919F020091A0021091A10286E394E03E
:100D0000B901A8012B5F3F4F0B5F1F4F0E94880A5C
:100D1000C2EAD2E0A1E0EA2EF12CDD24D39424C073
:100D2000E881F98180919E0290919F028E179F0722
:100D300059F42091A0023091A1028A819B81281749
:100D4000390711F4D09235040A811B8186E394E0BF
:100D5000BF01A80135969F010B5F1F4F0E94880AB3
:100D60000894E11CF11C249680916E0190916F0112
:100D7000E816F906ACF2DF91CF911F910F91FF9029
:100D8000EF90DF900895EF92FF920F931F93CF9310
:100D9000DF9386E394E060E040E020E00E94BE0C38
:100DA000CEE9D2E0EE24FF2412C0288139810A81E5
:100DB0001B8186E394E0B901A8012B5F3F4F0B5FD5
:100DC0001F4F0E94880A0894E11CF11C2496809110
:100DD0006E0190916F01E816F9063CF3DF91CF9117
:100DE0001F910F91FF90EF900895EF92FF920F9354
:100DF0001F9306E3E02E04E0F02EC70160E040E020
:100E000020E00E94BE0C20912E0430912F0400910E
:100E1000300410913104C701B901A8012B5F3F4F85
:100E20000B5F1F4F0E94880A0E94CA3169E271E07D
:100E30000E94332F0E9665E070E00E94332FCB01A5
:100E4000880F991F880F991F860F971F90932F0463
:100E500080932E040E94CA3161EB70E00E94332F10
:100E6000C69665E070E00E94332FCB01880F991F72
:100E7000880F991F860F971F909331048093300439
:100E8000C70160E170E80E94D60C20912E043091D9
:100E90002F040091300410913104C701B901A80159
:100EA0002B5F3F4F0B5F1F4F0E94880A1F910F91CE
:100EB000FF90EF9008952F923F924F925F926F9222
:100EC0007F928F929F92AF92BF92CF92DF92EF92DA
:100ED000FF920F931F93DF93CF93CDB7DEB7A29707
:100EE0000FB6F894DEBF0FBECDBF80E090E0A0E06B
:100EF000B0E089839A83AB83BC838D839E83AF8369
:100F0000B88789879A87AB87BC87AA24BB2429E145
:100F1000822E912C8C0E9D1E9CE2692E91E0792EE2
:100F200085E1282E312C2C0E3D1E2E010894411CEB
:100F3000511C86E394E060EE7FEF0E94D60C609136
:100F4000700170917101882777FD8095982F0E941C
:100F5000592C43E020E084010E94583186E394E05C
:100F6000B40148EC50E02EE130E000E010E00E94D7
:100F70008E1888EB9BE0F3013197F1F70197D9F7D1
:100F80000E94C30681E090E090936F0180936E0110
:100F900080EA90E090939F0280939E028AE590E021
:100FA0009093A1028093A0020E94F506CC24DD2438
:100FB00090C0C201BE016B5F7F4FAE01475F5F4FC4
:100FC0009E01235F3F4F8E010F5E1F4F71010E94F4
:100FD000AD1C0E94C306E980FA800B811C81C80108
:100FE000B7012DEC3CEC4CE45EE30E94F92B1816A3
:100FF00024F494E090936C010DC0C801B7012DEC6E
:101000003CEC4CE45EEB0E94292C88231CF483E02A
:1010100080936C01ED80FE800F811885C801B701B7
:101020002DEC3CEC4CE45EE30E94F92B181624F402
:1010300092E090936C010DC0C801B7012DEC3CEC1F
:101040004CE45EEB0E94292C88231CF481E0809301
:101050006C010E9441030E94690686E394E060EE01
:101060007FEF0E94D60C6091320470913304882780
:1010700077FD8095982F0E94592C43E020E0840151
:101080000E94583186E394E0B4014CE350E02EE135
:1010900030E000E010E00E948E1880913404882334
:1010A00021F494E6C916D10431F40E94F506109299
:1010B0003404CC24DD2480916C0180936D018CED8F
:1010C00095E0F3013197F1F70197D9F70894C11C26
:1010D000D11C80913504882341F480916E01909158
:1010E0006F010A9709F065CF33C086E394E06FEF94
:1010F00040E020E00E94BE0C86E394E06DE071E0E9
:1011000042E850E02AE530E000E010E00E948E184E
:101110008BE191E00E94C50580913504882351F54B
:1011200086E394E06FEF40E020E00E94BE0C86E38F
:1011300094E068E271E040E550E02AE530E000E04C
:1011400010E00E948E1881E491E00E94C50512C053
:10115000809170019091710101969093710180933B
:1011600070010894A11CB11C8AE0A816B10409F012
:10117000E0CED2CFA2960FB6F894DEBF0FBECDBFA1
:10118000CF91DF911F910F91FF90EF90DF90CF9063
:10119000BF90AF909F908F907F906F905F904F9097
:1011A0003F902F900895DF92EF92FF920F931F933D
:1011B000CF93DF9380E090E00E94CF310E94081E21
:1011C00086E394E061E00E94FC0C86E394E06AE927
:1011D00070E00E94C5130CE211E08AE494E00E94E2
:1011E0004025892B41F080E197E2F8013197F1F732
:1011F0000197D9F7F2CF78944CE2E42E41E0F42E37
:10120000C1E0D0E032E0D32E86E394E00E94410CAE
:1012100086E394E060E070E00E946C0C86E394E06A
:1012200060E170E00E94D60C86E394E06EE070E02E
:1012300046E350E027E331E007EE10E00E94701132
:1012400086E394E060E074E00E94D60C86E394E0CC
:101250006DE471E04AE050E020E030E000E010E0B2
:101260000E948E1886E394E06CE571E04EE050E059
:101270002EE130E00E948E1886E394E064E671E08F
:101280004AE950E02EE130E00E948E180E945B0790
:1012900080E593ECF7013197F1F70197D9F71092B8
:1012A000350410923404D0937101C09370011092F0
:1012B000330410923204D0936F01C0936E01D09228
:1012C0006C01D0926D01A0CF68B942B92898289AD4
:1012D0000895EF92FF920F931F937801890168B9E7
:1012E00042B9C801B70120E130E040E050E00E947F
:1012F000682FC901DA0120E030E040E050E024C06E
:101300002898289A2898289A2898289A2898289AD5
:101310002898289A2898289A2898289A2898289AC5
:101320002898289A2898289A2898289A2898289AB5
:101330002898289A2898289A2898289A2898289AA5
:101340002F5F3F4F4F4F5F4F281739074A075B0703
:10135000BCF2D801C7018F709070A070B070009778
:10136000A105B105C9F0C801B70120E130E040E0B6
:1013700050E00E94682F9B01AC0180E090E0A0E06B
:10138000B0E005C02898289A0196A11DB11D281724
:1013900039074A075B07B4F71F910F91FF90EF9051
:1013A0000895FC018FEE90E0A0E0B0E08583968385
:1013B000A783B0878FE391E0A0E0B0E081879287B8
:1013C000A387B4870895FC018FEE90E0A0E0B0E021
:1013D00085839683A783B0878FE391E0A0E0B0E098
:1013E00081879287A387B48708955F9818B862B9F8
:1013F0002898289A08955F9A68B942B92898289A37
:1014000008955F9A18B862B92898289A08950F939A
:101410001F938A010E94F5095F9A812F992787FD02
:101420009A9588B902B92898289A1F910F91089522
:10143000AF92BF92CF92DF92EF92FF920F931F93E2
:10144000CF93DF93EC016B015A0179018C818130DC
:1014500059F429853A85B9016C197D092E193F097E
:101460006A01590178018B01CE016AE20E94F509F7
:10147000CE016D2D0E94010ACE016C2D0E94010A41
:10148000CE016F2D0E94010ACE016E2D0E94010A2D
:10149000CE016BE20E94F509CE016B2D0E94010A7C
:1014A000CE016A2D0E94010ACE01612F0E94010A1D
:1014B000CE01602F0E94010ACE016CE20E94F50964
:1014C000DF91CF911F910F91FF90EF90DF90CF9020
:1014D000BF90AF9008950F931F93FC018481A58165
:1014E000B68101851285882339F4CF0160E070E070
:1014F00040E050E09D0107C0CF0160E070E040E0B7
:1015000050E098018D010E94180A1F910F910895D3
:101510006F927F928F929F92AF92BF92CF92DF9203
:10152000EF92FF920F931F93CF93DF933C014B01F8
:101530005A016901E8012617370714F46B014901C4
:10154000CA15DB051CF4CE01E5015C015C98C30102
:10155000B401A50196018E010E94180A5F9AF30159
:10156000F080E180CA19DB09BE01882777FD8095EC
:10157000982F6F5F7F4F8F4F9F4FC818D9089601E4
:10158000442737FD4095542F2F5F3F4F4F4F5F4FFC
:101590000E94002F8B019C01C3016F2D70E04E2D26
:1015A00050E00E9469095C9ADF91CF911F910F91E1
:1015B000FF90EF90DF90CF90BF90AF909F908F9073
:1015C0007F906F9008952F923F924F925F926F920B
:1015D0007F928F929F92AF92BF92CF92DF92EF92C3
:1015E000FF920F931F93DF93CF93CDB7DEB728976A
:1015F0000FB6F894DEBF0FBECDBF98878F831B0157
:101600002A01790121E030E02E193F093E832D8324
:10161000C701880F991FEE27FF27E81BF90BFA83F4
:10162000E9835C988701040F151F8F819885A801B5
:1016300091010E94180AEF81F885808191815F9A5B
:1016400088B992B92898289A82010E191F098F81AA
:101650009885B101A80191010E94180AEF81F885CF
:10166000808191815F9A88B992B92898289A9701C8
:10167000220D331D8F819885B901A20182010E943C
:10168000180AEF81F885808191815F9A88B992B9B3
:101690002898289A91012E193F098F819885B901C0
:1016A000A2010E94180AEF81F885808191815F9ADA
:1016B00088B992B92898289A370121E030E03C8314
:1016C0002B8388249924BBC08D819E8197FD0CC0FB
:1016D000089461087108E981FA813296FA83E983F6
:1016E0008E0F9F1F9E838D830894811C911C2B81DC
:1016F0003C812E5F3F4F3C832B838D819E81820FE7
:10170000931F9E838D835401A20CB31C7301E40CC0
:10171000F51C8F819885B501A701950187010E946D
:10172000180AEF81F885808191815F9A88B992B912
:101730002898289A6101C818D9088F819885B60120
:10174000A70196010E94180AEF81F8858081918196
:101750005F9A88B992B92898289A7201E618F70812
:101760008F819885B501A701950187010E94180A0C
:10177000EF81F885808191815F9A88B992B9289824
:10178000289A8F819885B601A70196010E94180AB0
:10179000EF81F885808191815F9A88B992B9289804
:1017A000289A5301A20CB31C7401E40CF51C8F8120
:1017B0009885B501A701950187010E94180AEF815C
:1017C000F885808191815F9A88B992B92898289A82
:1017D0006101C618D7088F819885B601A7019601C7
:1017E0000E94180AEF81F885808191815F9A88B9FB
:1017F00092B92898289A7201E818F9088F8198857B
:10180000B501A701950187010E94180AEF81F885AB
:10181000808191815F9A88B992B92898289A8F819E
:101820009885B601A70196010E94180AEF81F885F4
:10183000808191815F9A88B992B92898289A8614F4
:1018400097040CF441CF5C9A8F8198850E946B0AB3
:1018500028960FB6F894DEBF0FBECDBFCF91DF91B3
:101860001F910F91FF90EF90DF90CF90BF90AF90BE
:101870009F908F907F906F905F904F903F902F90B0
:101880000895EF92FF920F931F937C015C980E9442
:101890006B0A5F9AF70161857285838594856F5F16
:1018A0007F4F8F4F9F4F25813681478150852F5F16
:1018B0003F4F4F4F5F4F0E94002F8B019C01C7018C
:1018C00060E070E040E050E00E9469095C9A1F917E
:1018D0000F91FF90EF900895AF92BF92CF92DF9259
:1018E000EF92FF920F931F937C01A62EC72E5C9858
:1018F0000E946B0A5F9ADD24C7FCD094BB24A7FC2E
:10190000B094F70161857285838594856F5F7F4F01
:101910008F4F9F4F25813681478150852F5F3F4FE5
:101920004F4F5F4F0E94002F8B019C01C701B601F2
:10193000A5010E9469095C9A1F910F91FF90EF9099
:10194000DF90CF90BF90AF90089550E04C7F5070E3
:1019500073E0440F551F7A95E1F770E0687F70706F
:10196000762F6627462B572B26952695269530E011
:10197000422B532BBA010E946C0C0895FC0150E0DD
:10198000CA01B5E095958795BA95E1F7687F682B10
:1019900060832695269526954C715070A3E0440FE0
:1019A000551FAA95E1F7242B21830895FC0170832C
:1019B00061830895FC01908180E0218130E0282B33
:1019C000392BC9010895FC0150E0CA0135E0959515
:1019D00087953A95E1F7687F682B6283269526956F
:1019E00026954C71507083E0440F551F8A95E1F79E
:1019F000242B2383138A0895BF92CF92DF92EF9214
:101A0000FF920F931F938C01FC016483BB24BA9453
:101A1000B7B8B1B884B184B9209A299A289A579A4C
:101A2000569A549A50E3C52E55E7D52EC601019714
:101A3000F1F75E9AC6010197F1F75E98C60101972A
:101A4000F1F75E9AC6010197F1F75C98C8016BEC5B
:101A50000E94F509C80169E30E94010AC8016CE20D
:101A60000E94010AC80160E00E94010AC80164E303
:101A70000E94010AC80162E00E94010A48EBE42EBC
:101A80004BE0F42EC7010197F1F7C8016FEC0E94FB
:101A9000F509C80160E00E94010AC80161EC0E94DA
:101AA000010AC80160E30E94010AC7010197F1F72A
:101AB000C80168EE0E94F509C80165E80E94010AA4
:101AC000C80160E00E94010AC80168E70E94010A9B
:101AD000C7010197F1F7C8016AEE0E94F509C80134
:101AE00060E00E94010AC80160E00E94010AC7018B
:101AF0000197F1F7C8016DEE0E94F509C80164E68F
:101B00000E94010AC80163E00E94010AC80162E163
:101B10000E94010AC80161E80E94010AC7010197F9
:101B2000F1F7C80167EF0E94F509C80160E20E9461
:101B3000010AC7010197F1F7C80160EC0E94F5099D
:101B4000C80163E20E94010AC7010197F1F7C801C9
:101B500061EC0E94F509C80160E10E94010AC70119
:101B60000197F1F7C80165EC0E94F509C8016EE321
:101B70000E94010AC80168E20E94010AC701019798
:101B8000F1F7C80167EC0E94F509C80166E80E94F8
:101B9000010AC7010197F1F7C80166E30E94F50940
:101BA000C80168E40E94010AC7010197F1F7C80162
:101BB0006AE30E94F509C80165E50E94010AC701B0
:101BC0000197F1F7C80161EB0E94F509C80160E0D7
:101BD0000E94010AC80168E10E94010AC701019739
:101BE000F1F7C80166EB0E94F509C80168E00E94A0
:101BF000010AC80162E80E94010AC80167E20E9466
:101C0000010AC7010197F1F7C80161E10E94F509D6
:101C1000C6010197F1F7C80169E20E94F509C70101
:101C20000197F1F7C8016CE20E94F509C70101971D
:101C3000F1F75C9AF801B082B182C80160E040E03F
:101C400020E00E94E30CF80116861586138A1F9186
:101C50000F91FF90EF90DF90CF90BF900895FC011F
:101C60004F3F8FEF58078FEF68078FEF780719F412
:101C700081E0838B0895BB27A72F962F852F828322
:101C80004383138A0895FC01928180E0238130E030
:101C9000282B392BC90108955F9A78B962B9289821
:101CA000289A0895EF92FF920F931F937C019B0156
:101CB0008A015C980E94180AF701708160E08181B6
:101CC00090E0682B792BC7010E944C0E5C9AC701EB
:101CD0000E946B0A1F910F91FF90EF900895EF9271
:101CE000FF920F931F93CF93DF937C018A01E90149
:101CF00037FF05C0D095C195DF4F6C1B7D0B5C98FD
:101D00009E01260F371FC701A8010E94180A5F9A7B
:101D1000F701608141818E01222717FD2095322F26
:101D2000C70170E050E00E9469095C9AC7010E94F7
:101D30006B0ADF91CF911F910F91FF90EF90089563
:101D40002F923F924F925F926F927F928F929F92CB
:101D5000AF92BF92CF92DF92EF92FF920F931F93B9
:101D6000CF93DF933C011B01CC24DD24C21AD30A9C
:101D7000229F2001239F500C329F500C11244601BA
:101D8000840E951E5A01AC18BD08E6012EC0229F94
:101D9000C001239F900D329F900D1124840F951F39
:101DA00048165906B4F08901020D131D220F331F86
:101DB000EE24FF24E21AF30AC301B801A40197013B
:101DC0000E946F0EC301B801A50197010E946F0E1A
:101DD00005C02F5F3F4F12161306CCF621960894CC
:101DE000811C911C0894A108B1081C161D064CF01A
:101DF000CC9FA001CD9F500DDC9F500D112496016A
:101E0000EACFDF91CF911F910F91FF90EF90DF907C
:101E1000CF90BF90AF909F908F907F906F905F908A
:101E20004F903F902F9008952F923F924F925F9244
:101E30006F927F928F929F92AF92BF92CF92DF92DA
:101E4000EF92FF920F931F93DF93CF93CDB7DEB73F
:101E50002A970FB6F894DEBF0FBECDBF4C017B01B1
:101E60006A01A9012617370714F4AB0179010C1593
:101E70001D051CF4C80186016C015A01AE18BF088B
:101E800025E0A216B1040CF46CC0C8018C199D09A0
:101E9000853091050CF465C0FC01F595E795FA8352
:101EA000E9831A86198697012E5F3F4F3C832B8367
:101EB0009CEF292E9FEF392E2A0C3B1C27010894FA
:101EC000411C511C8EEF682E8FEF782E6A0C7B1C04
:101ED000C60101969E838D83F8013197F887EF83C1
:101EE00029853A852115310521F021303105D9F4B4
:101EF0000DC0C4016B817C81A60191010E946F0E0F
:101F0000C4016B817C81A80191011EC0C401B20192
:101F10004D815E8193010E946F0EC401B2014F8119
:101F20005885930111C049855A854C0D5D1DC4012A
:101F3000B70195010E946F0EA80189859A85481BFB
:101F4000590BC401B70195010E946F0EE985FA850E
:101F50003196FA87E98729813A812E173F070CF0DD
:101F6000BFCF2A960FB6F894DEBF0FBECDBFCF917C
:101F7000DF911F910F91FF90EF90DF90CF90BF9076
:101F8000AF909F908F907F906F905F904F903F9019
:101F90002F900895EF92FF920F931F93CF93DF93AB
:101FA0007C01FB01E90137FF05C0D095C195DF4FEA
:101FB0004C1B5D0B5C988E01040F151FC701BF0100
:101FC0009F010E94180A5F9AF701608141818E018A
:101FD000222717FD2095322FC70170E050E00E94A4
:101FE00069095C9AC7010E946B0ADF91CF911F912A
:101FF0000F91FF90EF9008952F923F924F925F9232
:102000006F927F928F929F92AF92BF92CF92DF9208
:10201000EF92FF920F931F93DF93CF9300D000D0E6
:10202000CDB7DEB74C01690178014017510731F493
:10203000C61AD70A96010E946F0E96C062177307E0
:1020400031F4E41AF50A97010E94CA0F8DC0621795
:10205000730724F42901461A570A03C02B01421AB8
:10206000530A6C157D052CF02FEF3FEF3A8329833F
:1020700004C081E090E09A8389834E155F0524F4C3
:102080003701641A750A03C03A016E187F084E15AD
:102090005F0524F022242A94322C03C0F1E02F2E75
:1020A000312C5C984614570480F5C30196958795AA
:1020B000AA24BB24A81AB90A7C836B836A0102C0D4
:1020C000C20CD31CC4016B817C81A6019B018601DB
:1020D0000E94180AF401808191815F9A88B992B9AF
:1020E0002898289ACE14DF0409F441C0A40CB51C2A
:1020F000B7FCE6CF2B813C8189819A81280F391F5B
:102100003C832B83A618B708DBCFC2019695879531
:10211000AA24BB24A81AB90A7B015C834B8304C0A0
:10212000E981FA81EE0EFF1EC401B7014B815C818B
:1021300097018A010E94180AF401808191815F9AB7
:1021400088B992B92898289AEC14FD0481F0A60C5D
:10215000B71CB7FCE5CF2B813C81220D331D3C839E
:102160002B83A418B508DCCFC4010E946B0A0F9022
:102170000F900F900F90CF91DF911F910F91FF90D3
:10218000EF90DF90CF90BF90AF909F908F907F9017
:102190006F905F904F903F902F9008952F923F92B5
:1021A0004F925F926F927F928F929F92AF92BF9267
:1021B000CF92DF92EF92FF920F931F93DF93CF9313
:1021C00000D000D0CDB7DEB74C015B015C834B8300
:1021D000290138012617370714F459012B012B81E7
:1021E0003C81621673062CF48B819C817C826B820D
:1021F0003C0112012A183B0835E0231631040CF487
:1022000058C0C301EB81FC818E1B9F0B9A8389838D
:1022100005970CF44EC065010894C11CD11C8F01B8
:102220000F5F1F4FC401B601A8010E94520E720138
:102230000894E108F108C401B701A8010E94520EF8
:10224000830101501040C401B601A8010E94520E42
:10225000C401B701A8010E94520E85010E5F1F4FF5
:10226000ACEFEA2EAFEFFA2EE20CF31CC401B8017A
:102270004B815C8197010E946F0EC401B801A301DC
:1022800097010E946F0E0B811C810E5F1F4FE9802A
:10229000FA802CEF3FEFE20EF31EC401B501A80156
:1022A00097010E94CA0FC401B201A80197010E94C0
:1022B000CA0F0F900F900F900F90CF91DF911F9149
:1022C0000F91FF90EF90DF90CF90BF90AF909F90D5
:1022D0008F907F906F905F904F903F902F900895D8
:1022E0008F929F92AF92BF92CF92DF92EF92FF9226
:1022F0000F931F93CF93DF934C01EB017A015901A8
:1023000068012617370714F45B01E901CE14DF04D6
:102310001CF4C60167017C0185010C1B1D0BC40167
:10232000BE01A70198010E946F0EC401BE01A60163
:1023300098010E946F0E86010E191F09C401BE018B
:10234000A70198010E94CA0FC401B501A701980115
:102350000E94CA0FDF91CF911F910F91FF90EF90D4
:10236000DF90CF90BF90AF909F908F9008952F9265
:102370003F924F925F926F927F928F929F92AF9215
:10238000BF92CF92DF92EF92FF920F931F93DF9352
:10239000CF93CDB7DEB72A970FB6F894DEBF0FBE46
:1023A000CDBF9A8789875A83498319015C98A9858B
:1023B000BA8553968C915397882309F038C11496A7
:1023C0008C9114971F960C911F9750964C91509793
:1023D000E62EFF24882309F08FC0202F30E0215003
:1023E0003040E981FA812E0F3F1F042F10E0015089
:1023F0001040020D131DCD01BF01A1010E94180A5A
:10240000A985BA851F962C911F9730E003E035957A
:1024100027950A95E1F750968C91509790E0F90135
:10242000E89F9001E99F300DF89F300D11245196DF
:102430008C91E81AF1082E9D60012F9DD00C3E9DD5
:10244000D00C112444E050E0C40ED51E88249924F9
:102450003BC0A985BA851D96ED91FC911E97EC0DA8
:10246000FD1DE49107E010E06E2E7724C301002EDD
:1024700002C0959587950A94E2F780FF0AC0E98526
:10248000FA85F080EE24618170E06E297F29CF010A
:102490000DC0A985BA851296BC901297AA241396EE
:1024A0006C91139770E06A297B29CD010E944C0E34
:1024B00001501040BFEF0F3F1B07C1F60894C11C2D
:1024C000D11C0894811C911CE985FA85878590E0D0
:1024D00013E0959587951A95E1F7208930E0AC01D6
:1024E000429FC001439F900D529F900D112488166A
:1024F000990608F4AECF2BC1069506950695049F64
:1025000090011124A985BA8551968C91E81AF10899
:102510002E9D50012F9DB00C3E9DB00C1124E4E087
:10252000F0E0AE0EBF1E4424552471C0C20170E01D
:102530000E941F2F8B01020D131D30E021503040EF
:1025400049815A81240F351F89859A85BA01A801CE
:102550000E94180AA985BA851F968C918695869542
:102560008695E82EFF240894E108F1086701CA0C5B
:10257000DB1C3BC0A985BA851D96ED91FC911E9789
:10258000EC0DFD1DE49100E010E04E2F50E05C8367
:102590004B838B819C81002E02C0959587950A9470
:1025A000E2F780FF0CC0A985BA859C90882411961B
:1025B0006C91119770E068297929CD0109C0E985EE
:1025C000FA8572806624638170E066297729CF01DD
:1025D0000E944C0E0F5F1F4F08301105D1F6089472
:1025E000E108F1080894C108D108FFEFEF16FFEFEA
:1025F000FF0609F0BFCFA985BA851F968C918695F5
:102600008695869590E0A80EB91E480E591EE9855C
:10261000FA852785622F6695669566958089689FFD
:10262000C00111244816590608F480CF90C0A9852E
:10263000BA851F962C911F9726952695269550961C
:102640008C915097289F90011124862F90E05196ED
:102650004C91841B9109289F4001299F900C389F21
:10266000900C1124E4E0F0E08E0E9F1E2101222444
:1026700033245CC0C501880D991DA985BA851D96B6
:10268000ED91FC911E97E80FF91FE4916301B7E00B
:10269000EB2EF12C4E2F50E05E834D838D819E8179
:1026A0000E2C02C0959587950A94E2F780FF18C01A
:1026B00096012F5F3F4F89859A85B601A2010F8150
:1026C00018850E94180AA985BA851C9100E0119608
:1026D0006C91119770E0602B712BCD010E944C0E14
:1026E0000894E108F1080894C11CD11CBFEFEB1657
:1026F000BFEFFB0699F60894A11CB11CE8E0F0E0DE
:102700006E0E7F1EA985BA851F968C91869586953B
:10271000869590E0A816B9060CF4ACCF880E991EE9
:102720000894211C311C0894411C511CE985FA8530
:10273000808990E02816390650F469807A80AA24AE
:10274000BB24A2014F5F5F4F58874F83DBCF5C9A5A
:1027500089859A850E946B0A2A960FB6F894DEBF87
:102760000FBECDBFCF91DF911F910F91FF90EF90E2
:10277000DF90CF90BF90AF909F908F907F906F90A1
:102780005F904F903F902F900895DC01FB011E96C3
:102790007C936E931D9784911F968C931F9731960F
:1027A000849150968C9350973196849151968C9346
:1027B00051973196E4915296EC930895FC018585EA
:1027C00096850895FC0187850895FC018089089508
:1027D0002F923F924F925F926F927F928F929F9231
:1027E000AF92BF92CF92DF92EF92FF920F931F931F
:1027F000DF93CF93CDB7DEB72A970FB6F894DEBF3D
:102800000FBECDBF9E838D834B013A015901180144
:10281000FC014481F1E0CF16D10409F06FC04423DC
:1028200059F55C989B01215030402A0D3B1D8301D6
:1028300001501040020D131D8D819E81A3010E9445
:10284000180A2A9CB0012B9C700D3A9C700D112423
:10285000A70120E030E00CC0FA01859194915F9AC5
:1028600098B982B92898289A2F5F3F4F4E5F5F4FE3
:10287000261737078CF3F3C05C982901440C551CCC
:1028800069010894C108D108CC0CDD1CCE0CDF1CFA
:102890001A8619860894810891087401EA0CFB1CB9
:1028A0000894811C911C24C009851A85060D171DEA
:1028B0008D819E81B401A80197010E94180AA5018B
:1028C00096010AC0F901859194915F9A98B982B9ED
:1028D0002898289A225030404150504057FFF2CF5C
:1028E00029853A852F5F3F4F3A872987C40CD51C2D
:1028F00049855A8542155305BCF2B1C0CB010197F9
:10290000F901EE0FFF1FF887EF83CA9C9001CB9C63
:10291000300DDA9C300D1124442309F050C05C982E
:10292000AC01420F531F5C834B837A866986230177
:102930004C0C5D1C3701EE24FF243CC08D819E8130
:10294000B40149855A852B813C8182010E94180A75
:1029500060E070E019C0FA01A591B491EB2F80E01E
:1029600090E006C05F9AE8B9A2B92898289A019623
:102970008C159D05BCF32F5F3F4F4E5F5F4F2A15AF
:102980003B054CF36F5F7F4F6C157D0524F4A3016D
:1029900020E030E0F4CF0894E11CF11C89859A8591
:1029A0008C0D9D1D9A8789874C0C5D1CEF81F885E5
:1029B0006E0E7F1EE214F3040CF4C0CF50C05C987E
:1029C000AC01420F531F5A834983250108944108E3
:1029D00051085201AA0CBB1CAE0CBF1CEE24FF24F4
:1029E00038C009851A85060D171D8D819E81B40199
:1029F000A80129813A810E94180AA201950114C0F8
:102A0000F90165917491E72F80E090E006C05F9A2C
:102A1000E8B962B92898289A01968C159D05BCF3EF
:102A2000415050402250304057FFEACF89859A8567
:102A300001969A878987E985FA85EC15FD058CF260
:102A40000894E11CF11C2F813885A20EB31E6C0C7A
:102A50007D1CE214F3041CF41A861986ECCF5C9AF0
:102A60008D819E810E946B0A2A960FB6F894DEBF74
:102A70000FBECDBFCF91DF911F910F91FF90EF90CF
:102A8000DF90CF90BF90AF909F908F907F906F908E
:102A90005F904F903F902F900895FC018481882390
:102AA00019F42581368102C0218532852F5F3F4F81
:102AB000C9010895FC018481882319F42185328598
:102AC00002C0258136812F5F3F4FC9010895EF92E3
:102AD0000F931F93FB01CA01B901402F2E2D8F01C7
:102AE0000E9458311F910F91EF9008952F923F92BD
:102AF0004F925F926F927F928F929F92AF92BF920E
:102B0000CF92DF92EF92FF920F931F93DF93CF93B9
:102B1000CDB7DEB7E4970FB6F894DEBF0FBECDBFDA
:102B20009E8F8D8F3B012A0138A32F8F1AA309A3F3
:102B3000B601882777FD8095982F0E94592C29E2AD
:102B40003CE54FE85CE30E94532A6BA37CA38DA372
:102B50009EA3CD2861F48D8D9E8DB301A2012F8D92
:102B600038A1E1E0CE2ED12C0E94E8130FC15C9871
:102B70002F8D38A1220F331F3E832D83FA86E986DD
:102B800088279927881999099C838B831E861D861F
:102B9000AA27BB27AA19BB09BCA7ABA7A60CB71CC1
:102BA000C501AA2797FDA095BA2F8DA79EA7AFA70D
:102BB000B8AB840C951CC401AA2797FDA095BA2F29
:102BC00089AB9AABABABBCABC4C0E981FA81A59130
:102BD000B491BC87AB872F813885B901882777FDF1
:102BE0008095982F0E94592C698F7A8F8B8F9C8F9C
:102BF0002BA13CA14DA15EA1B901CA010E94C02F29
:102C00006D8B7E8B8F8B988F6FA178A589A59AA5E8
:102C10000E94592C698B7A8B8B8B9C8B2BA13CA1AE
:102C20004DA15EA1B901CA010E941E301B012C01F9
:102C30006DA57EA58FA598A90E94592C5B016C01FA
:102C4000698D7A8D8B8D9C8D2D893E894F89588D0C
:102C50000E94532A7B018C0169897A898B899C891E
:102C6000A20191010E94532A9B01AC01C801B70146
:102C70000E94F5299B01AC01C601B5010E94262ADC
:102C80000E94B72C3B014C0169A97AA98BA99CA988
:102C90000E94592C5B016C0169897A898B899C8916
:102CA0002D893E894F89588D0E94532A7B018C01C2
:102CB000698D7A8D8B8D9C8DA20191010E94532A82
:102CC0009B01AC01C801B7010E94262A9B01AC01FF
:102CD000C601B5010E94262A0E94B72C7B018C01F7
:102CE0008D8D9E8DB301A701930187010E94180A63
:102CF0005F9A3C8538B98B8582B92898289AAF8528
:102D0000B8891196B88BAF8729813A812E5F3F4FE2
:102D10003A8329838F819885019698878F83AF8521
:102D2000B8892F8D38A1A217B3070CF44ECF8D852B
:102D30009E8501969E878D87A985BA852D813E81C6
:102D4000A20FB31FBA87A9878B819C8101969C83B0
:102D50008B83AD85BE8529A13AA1A217B307ACF438
:102D60008BA59CA598878F83A985BA85BA83A983EB
:102D7000188A1F868B819C81AA2797FDA095BA2F60
:102D80008FA398A7A9A7BAA7CACF5C9A8D8D9E8D4D
:102D90000E946B0AE4960FB6F894DEBF0FBECDBF5B
:102DA000CF91DF911F910F91FF90EF90DF90CF9027
:102DB000BF90AF909F908F907F906F905F904F905B
:102DC0003F902F9008952F923F924F925F926F9273
:102DD0007F928F929F92AF92BF92CF92DF92EF92AB
:102DE000FF920F931F93DF93CF93CDB7DEB7E19799
:102DF0000FB6F894DEBF0FBECDBF99AB88ABC62E21
:102E00005A014901198F088FB701882777FD8095EE
:102E1000982F0E94592C29E23CE54FE85CE30E9480
:102E2000532A6E8F7F8F88A399A35C98A8A9B9A90C
:102E30001F968C911F9786958695869550962C9116
:102E40005097829FC0011124DD2451962C91C21A03
:102E5000D1088C9DF0018D9DF00D9C9DF00D1124ED
:102E60003496FE83ED831F829501442737FD4095FC
:102E7000542F28A739A74AA75BA7C401AA2797FD03
:102E8000A095BA2F8CA79DA7AEA7BFA712C18B8113
:102E90009C81AD81BE818A0F9B1FA8A9B9A91D96EF
:102EA000ED91FC911E97E80FF91FC4902E8D3F8D78
:102EB00048A159A1B901CA010E94C02F6C8B7D8B1A
:102EC0008E8B9F8B6CA17DA18EA19FA10E94592CFE
:102ED0007B018C012E8D3F8D48A159A1B901CA01FA
:102EE0000E941E30688B798B8A8B9B8BC801B7013F
:102EF000288939894A895B890E94532A6C877D8792
:102F00008E879F87C801B7012C893D894E895F89CB
:102F10000E94532A688779878A879B8722243324D3
:102F2000EC2DF0E0FBA3EAA3A8A9B9A91F968C9108
:102F300090E0E88DF98DE89FB001E99F700DF89F52
:102F4000700D112429813A81620F731F620D731D68
:102F5000882777FD8095982F0E94592C4B015C01A2
:102F600068A579A58AA59BA50E94592C7B018C0197
:102F7000C501B4012C893D894E895F890E94532A7D
:102F80002C853D854E855F850E94F5299B01AC010E
:102F9000C801B7010E94262A0E94B72C2B013C01D0
:102FA0006B016CA57DA58EA59FA50E94592C7B0168
:102FB0008C01C501B401288939894A895B890E943D
:102FC000532A9B01AC01688579858A859B850E947F
:102FD000262A9B01AC01C801B7010E94262A0E9443
:102FE000B72C9B01AC018B010894C11CD11C0F5F55
:102FF0001F4F88A999A9B201A90196010E94180A38
:1030000087E090E0821993094AA15BA102C055951F
:1030100047958A95E2F740FF0CC0A8A9B9A9BC91D1
:10302000BB8F1A8EE8A9F9A9618170E02A8D3B8DCA
:1030300011C0A8A9B9A953968C915397882379F404
:103040001296BC91BD8F1C8EE8A9F9A9638170E02E
:103050002C8D3D8D622B732BCF010E944C0E08945A
:10306000211C311C38E02316310409F05DCF4B815F
:103070005C814F5F5F4F5C834B8389819A810896A7
:103080009A838983A8A9B9A91F968C91869586955C
:10309000869590E0EB81FC81E817F9070CF4F7CEF8
:1030A0002D813E81280F391F3E832D833F813F5F55
:1030B0003F83A8A9B9A950968C91BF81B81780F415
:1030C0001C821B821A8219828B2F90E09C0144275C
:1030D00037FD4095542F2CA33DA34EA35FA3D2CF21
:1030E0005C9A88A999A90E946B0AE1960FB6F89498
:1030F000DEBF0FBECDBFCF91DF911F910F91FF902B
:10310000EF90DF90CF90BF90AF909F908F907F9087
:103110006F905F904F903F902F9008952F923F9225
:103120004F925F926F927F928F929F92AF92BF92D7
:10313000CF92DF92EF92FF920F931F93CF93DF9383
:103140005C01F62EE72EEA0119012801E62FF72F80
:10315000DF010D900020E9F73D0108946108710836
:103160006E1A7F0AFC018481882321F5F7E24F3033
:103170005F0799F4D5011596CD91DC9116972196AC
:103180001F968C9190E0FC01E69DC001E79D900D9B
:10319000F69D900D1124C81BD90BF7E2CE30DF0746
:1031A00009F048C0D50115966D917D918D919C9146
:1031B000189722C0F7E24F305F0799F4D5011996AE
:1031C000CD91DC911A9721961F968C9190E0FC018D
:1031D000E69DC001E79D900DF69D900D1124C81B42
:1031E000D90BF7E2CE30DF0729F5D50119966D919D
:1031F0007D918D919C911C976F5F7F4F8F4F9F4F5B
:103200001F962C9130E0F901E69D9001E79D300D6D
:10321000F69D300D1124442737FD4095542F621B35
:10322000730B840B950B22E030E040E050E00E94ED
:10323000682FE9018F2D9E2D9C014901CC24DD24AE
:1032400026C041145104A1F4D5011F968C9190E041
:10325000C89EA001C99E500DD89E500D11244C0F40
:103260005D1FC501F401608191010E94B71109C081
:10327000C501D4016C91AE019101860172010E94D9
:10328000E3160894C11CD11C0894811C911CC6141F
:10329000D704BCF2DF91CF911F910F91FF90EF9077
:1032A000DF90CF90BF90AF909F908F907F906F9066
:1032B0005F904F903F902F9008952F923F924F92A2
:1032C0005F926F927F928F92AF92CF92DF92EF9246
:1032D000FF920F931F93DF93CF93CDB7DEB76F9716
:1032E0000FB6F894DEBF0FBECDBF1C012A013B0113
:1032F0001D8F0C8FFF8EEE8EDC2CC82C222311F438
:1033000021E003C0263008F025E0C301B2014A2DB8
:103310007E010894E11CF11C87010E9458318EE265
:10332000D81661F0F7019E01245E3F4F80818E32F6
:1033300009F4D0823196E217F307C1F780E2C8168C
:1033400049F1C301B20120E030E040E050E00E94CA
:10335000292C882394F48DE28983FE0132969E0104
:10336000245E3F4F8081803211F08D3209F4C0829B
:103370003196E217F307B1F70DC0FE0131969E01B9
:10338000245E3F4F8081803209F4C0823196E2177B
:10339000F307C1F7C101BE016F5F7F4F4C8D5D8D9B
:1033A0002E8D3F8D00E010E00E948E186F960FB6B4
:1033B000F894DEBF0FBECDBFCF91DF911F910F916B
:1033C000FF90EF90DF90CF90AF908F907F906F90B5
:1033D0005F904F903F902F9008952F923F924F9281
:1033E0005F926F927F928F929F92AF92BF92CF9295
:1033F000DF92EF92FF920F931F93DF93CF93CDB79E
:10340000DEB7E6970FB6F894DEBF0FBECDBF2C0136
:103410004A015B0119011EAB0DAB37014115510586
:103420006105710511F5E114F104D9F0A0E0B0E0F7
:103430000894E108F1089E01265E3F4F05C0F9019E
:10344000EA0FFB1FC0821196AE15BF05C4F32A0F09
:103450003B1F80E3F9018083AC0FBD1F5B961C927C
:103460007EC080E38A8F1B8E7AC077FD02C0DD2488
:103470000AC0B094A09490948094811C911CA11CCB
:10348000B11CDD24D39400E010E07E010894E11C1F
:10349000F11CC501B4012AE030E040E050E00E9498
:1034A000682F9B01AC01F701E00FF11F862F805DB3
:1034B00080830F5F1F4F821A930AA40AB50AC501C1
:1034C000B4012AE030E040E050E00E94682FC901DA
:1034D000DA014C015D01181419041A041B04CCF222
:1034E000E00EF11EF7011082DD2011F08DE28A8FCF
:1034F0008D2D90E0B801680F791F661577051CF0D7
:1035000040E050E012C0FE017A96E80FF91F40E05B
:1035100050E07301E01AF10AE81AF90A03C0C192F7
:103520004F5F5F4F4E155F05D4F3DE01A00FB11F53
:10353000FE017A96840F951FE80FF91F20E030E016
:103540008C9181932F5F3F4F119720173107C4F360
:10355000FE013196E40FF51FE60FF71F118EC20131
:10356000BE01665E7F4FA1012DA93EA900E010E0DB
:103570000E948E18E6960FB6F894DEBF0FBECDBF40
:10358000CF91DF911F910F91FF90EF90DF90CF903F
:10359000BF90AF909F908F907F906F905F904F9073
:1035A0003F902F9008951092B90087E08093B80063
:1035B0000895982F84EA8093BC002FEF30E040E01C
:1035C00050E08091BC0087FD2CC021503109410999
:1035D0005109B8F78091B900887F883011F08031A7
:1035E000F1F49093BB0084E88093BC002FEF30E0AF
:1035F00040E050E08091BC0087FD19C021503109A6
:1036000041095109B8F79091B900987F983111F4A8
:1036100080E0089580E0903419F081E0089581E021
:1036200008952115310541055105C9F3D3CF211561
:1036300031054105510599F3E6CF982F64EA54E826
:1036400044E96093BC0020E030E08091BC0087FD3D
:103650002BC02F5F3F4F81E02030380729F1F5CF95
:10366000803179F79093BB005093BC0020E030E0AC
:103670008091BC0087FD1EC02F5F3F4F81E020304E
:103680003807C1F0F5CF8835D9F44093BC0020E06D
:1036900030E08091BC0084FFD4CF2F5F3F4F81E0AA
:1036A0002030380771F2F5CF8091B900887F8830DB
:1036B000B9F6D8CF8091B900887F803221F7E5CF65
:1036C00008950E94D91A089584E98093BC0020E0EF
:1036D00030E08091BC0084FF06C02F5F3F4F81E047
:1036E00020303807B1F708958093BB0084E88093B9
:1036F000BC002FEF30E040E050E08091BC0087FD3F
:103700000EC02150310941095109B8F78091B90023
:1037100090E0887F883209F091E0892F0895211583
:10372000310541055105C1F3F1CF84EC8093BC0014
:103730002FEF30E040E050E08091BC0087FD08C0F2
:103740002150310941095109B8F78091BB00089512
:103750002115310541055105C1F780E0089584E840
:103760008093BC002FEF30E040E050E08091BC003F
:1037700087FD08C02150310941095109B8F78091EE
:10378000BB0008952115310541055105C1F780E0C1
:103790000895EF92FF920F931F93CF93DF93182F0B
:1037A000E62E042FF52E6623A1F080ED0E94D91A93
:1037B000812F0E94741B802F9F2D9C01E90110E036
:1037C00004C089910E94741B1F5F1E15D0F30E94D4
:1037D000641BDF91CF911F910F91FF90EF9008959F
:1037E000DF93CF930F92CDB7DEB7698361E0AE016F
:1037F0004F5F5F4F0E94C91B0F90CF91DF910895DB
:10380000DF92EF92FF920F931F93CF93DF93182FC6
:10381000D62E042FF52E662311F410E02AC080ED79
:103820000E94D91A812F0E94741B88E28A95F1F7B1
:1038300081ED0E94D91A802F9F2D9C018901C0E043
:10384000D0E0ED2CFF240894E108F1080DC0CE155E
:10385000DF0519F40E94AF1B02C00E94951BF801FE
:10386000808321960F5F1F4FCD1588F31D2D0E9479
:10387000641B812FDF91CF911F910F91FF90EF90EB
:10388000DF9008956F927F928F929F92AF92BF9236
:10389000CF92DF92EF92FF920F931F936C015B0127
:1038A0004A0139018BE36EE049E756E00E94001CB3
:1038B0004091790620917A06942F80E030E0822BA7
:1038C000932BF6019183808340917B0620917C06A7
:1038D000942F80E030E0822B932BF501918380833D
:1038E00040917D0620917E06942F80E030E0822B6F
:1038F000932BF4019183808340918106209182066D
:10390000942F80E030E0822B932BF301918380830E
:103910004091830620918406942F80E030E0822B32
:10392000932BF80191838083409185062091860630
:10393000942F80E030E0822B932BF70191838083DA
:103940001F910F91FF90EF90DF90CF90BF90AF90BD
:103950009F908F907F906F9008952F923F924F92FB
:103960005F926F927F928F929F92AF92BF92CF920F
:10397000DF92EF92FF920F931F93DF93CF93CDB718
:10398000DEB72C970FB6F894DEBF0FBECDBF6C012B
:103990005B014A013901280117011A8219821C8230
:1039A0001B821E821D8218861F821A8619861C861B
:1039B0001B86CE010196BE016D5F7F4FAE014B5F4E
:1039C0005F4F9E01295F3F4F8E01075F1F4FEBE066
:1039D000EE2EF12CEC0EFD1E0E94421C69817A81B4
:1039E000882777FD8095982F0E94592C20E030E0A1
:1039F00040E858E30E94532AF60160837183828372
:103A000093836B817C81882777FD8095982F0E9416
:103A1000592C20E030E040E858E30E94532AF50199
:103A200060837183828393836D817E81882777FD94
:103A30008095982F0E94592C20E030E040E858E310
:103A40000E94532AF40160837183828393836F8180
:103A50007885665D7F4F882777FD8095982F0E9437
:103A6000592C23E333E343E851E40E944D2BF30147
:103A7000608371838283938369857A8569507040FE
:103A8000882777FD8095982F0E94592C23E333E3F4
:103A900043E851E40E944D2BF201608371838283DD
:103AA00093836B857C85635E7F4F882777FD809548
:103AB000982F0E94592C23E333E343E851E40E94FA
:103AC0004D2BF10160837183828393832C960FB613
:103AD000F894DEBF0FBECDBFCF91DF911F910F9144
:103AE000FF90EF90DF90CF90BF90AF909F908F901E
:103AF0007F906F905F904F903F902F900895AB0113
:103B000061E00E94001C0895FF920F931F93DF93C2
:103B1000CF930F92CDB7DEB7F82E062F142FBE012C
:103B20006F5F7F4F0E947F1D2981112351F081E03B
:103B300090E002C0880F991F0A95E2F7622F682B68
:103B40000AC081E090E002C0880F991F0A95E2F751
:103B5000682F6095622369838F2D0E94F01B0F9060
:103B6000CF91DF911F910F91FF9008958BE666E052
:103B700041E00E94841D08958BE666E040E00E94CB
:103B8000841D0895EF92FF920F931F93DF93CF93BD
:103B90000F92CDB7DEB7E82E062F142FF22E442356
:103BA00079F11982BE016F5F7F4F0E947F1D8823CC
:103BB00039F1212F30E0402F50E04F5F5F4F421B23
:103BC000530B81E090E002C0880F991F1A95E2F72D
:103BD0000197042E02C0880F991F0A94E2F72F2D37
:103BE00030E002C0220F331F4A95E2F7682F60953C
:103BF000498164238223682B69838E2D0E94F01BE8
:103C00000F90CF91DF911F910F91FF90EF9008954A
:103C10000E94D31A88E28A95F1F788EE93E02CE2AD
:103C200031E0F9013197F1F70197D9F70E94BC1DF6
:103C300080E395E70197F1F78BE662E043E021E04E
:103C40000E94C21D8AE162E043E023E00E94C21D9F
:103C500089E164E00E94F01B8BE164E042E023E034
:103C60000E94C21D8CE164E042E020E00E94C21D7F
:103C70000895FF920F931F93DF93CF930F92CDB7C9
:103C8000DEB7F62E8A01BE016F5F7F4F0E947F1D57
:103C900021E030E002C0220F331FFA94E2F799814D
:103CA0009223F80190830F90CF91DF911F910F9194
:103CB000FF900895EF92FF920F931F93DF93CF939E
:103CC0000F92CDB7DEB7062F142F7901442311F4DC
:103CD00060E029C0BE016F5F7F4F0E947F1D682F8B
:103CE000882309F1812F90E0402F50E04F5F5F4F14
:103CF000481B590B21E030E002C0220F331F1A95F8
:103D0000E2F721503040042E02C0220F331F0A94E4
:103D1000E2F78981822390E002C0959587954A95C4
:103D2000E2F7F7018083862F0F90CF91DF911F91EB
:103D30000F91FF90EF90089585E766E046E029E750
:103D400036E00E945A1E8091790690E0843309F48F
:103D500091E0892F0895CF92DF92EF92FF920F9317
:103D60001F93CF93DF936C01C0918706D091880693
:103D7000FC011182108224813581468157812130D6
:103D800031054105510509F45CC088859985AA85EE
:103D9000BB85281739074A075B0708F052C0211571
:103DA00031054105510539F48881833021F4288992
:103DB00039894A895B89F601208731874287538791
:103DC000211531054105510581F18EEFE82E8FEF68
:103DD000F82E8FEF082F8FEF182FE20EF31E041F1F
:103DE000151F88859985AA85BB850297A109B10908
:103DF000E816F9060A071B0728F020E030E040E04B
:103E000050E017C0298130E040E050E0C801B70120
:103E10000E94002F9B01AC018C899D89AE89BF89CE
:103E2000280F391F4A1F5B1F04C0288939894A8916
:103E30005B89F601248735874687578720E030E085
:103E400002C021E030E0C901DF91CF911F910F91B5
:103E5000FF90EF90DF90CF9008956F927F928F92B6
:103E60009F92AF92BF92CF92DF92EF92FF920F9309
:103E70001F93DF93CF9300D000D0CDB7DEB74B01B7
:103E80005C01609087067090880682E08816910435
:103E9000A104B10408F4B1C0F30180859185A28525
:103EA000B38588169906AA06BB0608F0A6C08081CD
:103EB000823009F45CC0833009F478C0813009F0A5
:103EC0009CC0C40196958795880D991D9C01317001
:103ED000892F992786956C01EE24FF24F3014485F0
:103EE000558566857785CE010196F1E02F3F3F0726
:103EF00049F0C40ED51EE61EF71EB701A60102E06A
:103F000010E01EC04C0D5D1D6E1D7F1D2FEF31E0BA
:103F100001E010E00E94EB26892B09F06EC0F3014E
:103F200044855585668577854F5F5F4F6F4F7F4F1F
:103F30004C0D5D1D6E1D7F1DCE01029620E030E010
:103F40000E94EB26892B09F058C069817A8180FE96
:103F500007C0A4E076956795AA95E1F79B0123C079
:103F60009B0140E050E03F70407050704AC077279E
:103F70006B2D5A2D492DF30184859585A685B7852E
:103F8000480F591F6A1F7B1F94013070220F331F87
:103F9000CE01019602E010E00E94EB26892B69F524
:103FA00089819A819C0140E050E02BC0B501A401B9
:103FB00027E076956795579547952A95D1F7F301B0
:103FC00084859585A685B785480F591F6A1F7B1F75
:103FD00094012F773070220F331F220F331FCE0131
:103FE000019604E010E00E94EB26892B31F4298130
:103FF0003A814B815C815F7004C021E030E040E099
:1040000050E0B901CA010F900F900F900F90CF911F
:10401000DF911F910F91FF90EF90DF90CF90BF90B5
:10402000AF909F908F907F906F9008952F923F92C6
:104030004F925F926F927F928F929F92AF92BF92B8
:10404000CF92DF92EF92FF920F931F93CF93DF9364
:10405000E82FC0918706D0918806209719F426E0B2
:1040600030E010C18A8180FD03C025E030E00AC144
:10407000AC8CBD8CCE8CDF8C4E2F592FCB01DA014E
:104080003C014D01A614B704C804D90410F435014D
:104090004601288D398D4A8D5B8D188E198E1A8EAA
:1040A0001B8E611471048104910409F4E9C08981B3
:1040B000A82EBB24CC24DD24E9E0AA0CBB1CCC1C1C
:1040C000DD1CEA95D1F72115310541055105B1F106
:1040D00019012A0108942108310841085108C40136
:1040E000B3016150704080409040A60195010E944C
:1040F000462F79018A01C201B101A60195010E94F2
:10410000462FE216F30604071507C0F08827992703
:10411000DC018A199B09AC09BD0982219321A421E4
:10412000B521888F998FAA8FBB8F681A790A8A0A5E
:104130009B0A2CA13DA14EA15FA133C028A139A1AA
:104140004AA15BA12CA33DA34EA35FA32AC0CA0131
:10415000B9010E942D1F9B01AC01623071058105E0
:10416000910508F489C088859985AA85BB8528179B
:1041700039074A075B0708F07FC02CA33DA34EA375
:104180005FA3888D998DAA8DBB8D8A0D9B1DAC1D5B
:10419000BD1D888F998FAA8FBB8F6A187B088C08EA
:1041A0009D08A614B704C804D90488F2888D998D97
:1041B000AA8DBB8D860D971DA81DB91D888F998F5F
:1041C000AA8FBB8F00918706109188067EEFA72EDD
:1041D0007FEFB72E7FEFC72E7FEFD72EA20EB31E35
:1041E000C41ED51EF80180859185A285B3850297EE
:1041F000A109B109A816B906CA06DB06E8F52181AE
:1042000030E040E050E0C601B5010E94002F9B0164
:10421000AC01F80184899589A689B789280F391FCF
:104220004A1F5B1F211531054105510529F1D401B4
:10423000C30169E0B695A795979587956A95D1F7DB
:10424000982F8B838FEFE82E81E0F82E012D112D12
:104250006E207F20802291226114710481049104D8
:1042600079F0290F311D411D511D28A739A74AA7F3
:104270005BA79F5F9B8304C01A8221E030E002C0ED
:1042800020E030E0C901DF91CF911F910F91FF90A5
:10429000EF90DF90CF90BF90AF909F908F907F90E6
:1042A0006F905F904F903F902F9008954F925F9244
:1042B0006F927F928F929F92AF92BF92CF92DF9236
:1042C000EF92FF920F931F93CF93DF933C016B010B
:1042D0004A01C0918706D0918806FA0111821082A6
:1042E000209719F426E030E0DDC08A8180FD03C00C
:1042F00025E030E0D7C02C8D3D8D4E8D5F8D888DB3
:10430000998DAA8DBB8D281B390B4A0B5B0BCB01FA
:10431000A0E0B0E0281739074A075B0708F46901F5
:104320005301412CA2E05A2EB3C0E88CF98C0A8DBF
:104330001B8DD801C7019170A070B0700097A105C6
:10434000B10509F06BC0C801B701F9E096958795F2
:1043500077956795FA95D1F7298130E040E050E0F4
:104360000E94462F6115710581059105D9F4E1146C
:10437000F1040105110529F468A179A18AA19BA185
:1043800006C06CA17DA18EA19FA10E942D1F62304D
:1043900071058105910508F482C06CA37DA38EA3ED
:1043A0009FA31B8200918706109188062CA13DA136
:1043B0004EA15FA12250304040405040F80180851E
:1043C0009185A285B3850297A109B10928173907FC
:1043D0004A075B0708F063C0618170E080E090E00D
:1043E0000E94002F9B01AC01F80184899589A68960
:1043F000B789280F391F4A1F5B1F21153105410559
:10440000510509F44CC08B81280F311D411D511DF0
:1044100028A739A74AA75BA78F5F8B83088D198DC3
:104420002A8D3B8DC8019170A201481B590B760162
:104430004C155D0508F47A016114710419F480E0EB
:1044400090E001C0C50148A559A56AA57BA59801C2
:10445000317087010E94EB26892B09F5C701A0E086
:10446000B0E0288D398D4A8D5B8D280F391F4A1F8A
:104470005B1F288F398F4A8F5B8FAE0CBF1CCE1805
:10448000DF08F401808191818E0D9F1D91838083CF
:10449000C114D10409F049CF20E030E003C01A82F2
:1044A00021E030E0C901DF91CF911F910F91FF9082
:1044B000EF90DF90CF90BF90AF909F908F907F90C4
:1044C0006F905F904F9008952F923F924F925F921E
:1044D0006F927F928F929F92AF92BF92CF92DF9214
:1044E000EF92FF920F931F93DF93CF9300D000D0F2
:1044F000CDB7DEB75C013B0103C00894611C711CA1
:10450000D3018C918032C9F38F3219F40894611C65
:10451000711CF5011482158216821782D3018C91C9
:10452000813268F4C5010E94AB1E4C01E091870600
:10453000F09188060680F781E02D108251C1222477
:104540002394F501A281B381FD01CD010B9602C038
:1045500020E22193E817F907D9F720E0332438E067
:1045600002C028E03BE0F301E30DF11D908133949C
:104570009132B0F09F32A1F09E3211F0231728F053
:10458000383071F49E3269F30BC0892F81568A311D
:1045900008F49052FD01E20FF11D90832F5FE3CFED
:1045A0001B961C921B97913210F41B962C92C501FE
:1045B0000E94AB1E4C01009709F0E1C0E091870614
:1045C000F091880646805780C2010B969A838983B2
:1045D000D5011C964D915D916D917C911F972D9108
:1045E0003C912F703070F5E0220F331FFA95E1F700
:1045F000C20100E210E00E94EB26892B09F024C1E1
:1046000007C1F201838583FD09C1D50112962D9161
:104610003C911397A90189819A81E817F90709F458
:104620000CC19081DA018C91981709F0F7C031968E
:104630004F5F5F4FF0CFF50124853585468557855F
:10464000211531054105510509F497C0C6018F7048
:104650009070892B09F08DC02F5F3F4F4F4F5F4FF8
:10466000D5011C962D933D934D935C931F971896FF
:104670004D915D916D917C911B974115510561059F
:10468000710541F4F80184819581C816D90608F0B6
:1046900074C06FC0D80111968C9190E0019796017B
:1046A000E4E036952795EA95E1F782239323892B59
:1046B00009F05FC0CB01BA010E942D1F9B01AC0124
:1046C000623071058105910508F4BEC0F80180854E
:1046D0009185A285B385281739074A075B0708F03B
:1046E0004CC0D50118962D933D934D935C931B9729
:1046F000E0918706F0918806FC83EB838EEFE82E2D
:104700008FEFF82E8FEF082F8FEF182FE20EF31E8A
:10471000041F151F80859185A285B3850297A10985
:10472000B109E816F9060A071B0728F020E030E077
:1047300040E050E017C0AB81BC8111962C9130E075
:1047400040E050E0C801B7010E94002F9B01AC017E
:10475000EB81FC8184899589A689B789280F391F47
:104760004A1F5B1FD5011C962D933D934D935C937F
:104770001F97F501D182C0822BCF83E090E04C01DE
:104780008330910569F5D5011296ED91FC9113974F
:104790008385882311F124C0E0918706F091880673
:1047A0000680F781E02D838584FF17C0630C711CA0
:1047B00084899589A0E0B0E0DC0199278827228DC3
:1047C000338D40E050E0822B932BA42BB52BF501C9
:1047D00084839583A683B783B4CEB4E08B2E912CCB
:1047E000C4010F900F900F900F90CF91DF911F9108
:1047F0000F91FF90EF90DF90CF90BF90AF909F9080
:104800008F907F906F905F904F903F902F90089582
:10481000D2018C91882309F0F4CEAFCF00918706A6
:1048200010918806F501C080D1800894C11CD11C6C
:10483000C114D10409F4A1CFFECED9011B968C91ED
:10484000882309F4A9CFCCCF81E090E098CFEF92F4
:10485000FF920F931F93DF93CF93CDB7DEB7AC9743
:104860000FB6F894DEBF0FBECDBF8C01E091870676
:10487000F0918806309719F426E030E036C03DE02C
:10488000E32EF12CEC0EFD1EF782E682CE0101969E
:10489000F80193838283C8010E9464229C010097DF
:1048A000F9F48D858823C1F0888D84FF1CC0F70141
:1048B00084899589A0E0B0E0DC0199278827228DC2
:1048C000338D40E050E0822B932BA42BB52BF801C5
:1048D00084839583A683B783C8010E94AB1E9C0185
:1048E0002330310511F424E030E0C901AC960FB655
:1048F000F894DEBF0FBECDBFCF91DF911F910F9116
:10490000FF90EF900895EF92FF920F931F93DF9324
:10491000CF93CDB7DEB7EC970FB6F894DEBF0FBEDE
:10492000CDBFBC01009187061091880601151105C5
:1049300019F466E070E042C0F80112825DE1E52EF4
:10494000F12CEC0EFD1EF782E682CE010196988BCB
:104950008F87CE010D960E946422BC01009771F5ED
:104960008D8D882349F188A584FD26C0F7018489AF
:104970009589A0E0B0E0DC0199278827228D338D4E
:1049800040E050E0822B932BA42BB52BF80180A3A1
:1049900091A3A2A3B3A3F701848D958DA68DB78DA6
:1049A000F801848F958FA68FB78F108E118E128E7F
:1049B000138E81E0828302C063E070E0CB01EC964D
:1049C0000FB6F894DEBF0FBECDBFCF91DF911F9120
:1049D0000F91FF90EF900895AF92BF92CF92DF9228
:1049E000EF92FF920F931F93CF93DF93B82EA92ED0
:1049F0006A017B012EEF31E002E010E00E94EB261D
:104A0000892B11F023E023C0CB2DDA2D88819981E9
:104A100085559A4A11F022E01AC08B2D9A2DB701C4
:104A2000A60126E330E002E010E00E94EB26892B8D
:104A3000D1F48881998186549144A9F420E007C07B
:104A400020E0888199818654914409F021E0822FE9
:104A5000DF91CF911F910F91FF90EF90DF90CF905A
:104A6000BF90AF9008958B2D9A2DB701A60122E536
:104A700030E002E010E00E94EB26892B09F3E6CF3C
:104A80006F927F928F929F92AF92BF92CF92DF925E
:104A9000EF92FF920F931F93DF93CF93CDB7DEB7C3
:104AA000A4970FB6F894DEBF0FBECDBF5C01109285
:104AB000880610928706009709F4EEC00E94DA2754
:104AC00080FF03C022E030E0EFC04E010894811C5B
:104AD000911CC40140E050E060E070E00E94EC24D2
:104AE000813021F0CC24DD2476011BC0C40140E0DC
:104AF00050E060E070E02EEB31E000E110E00E9459
:104B0000EB26892B09F0CBC08D81882309F4CAC01C
:104B1000C984DA84EB84FC84C401B701A6010E9435
:104B2000EC24833009F4BBC0882309F0BBC0CE015C
:104B30000196B701A6012DE030E004E210E00E94EA
:104B4000EB26892B09F0ABC08A859B85BC0180E0F0
:104B500090E0611571058105910521F4688D798DCD
:104B60008A8D9B8D2C8130E040E050E00E94002F28
:104B70003B014C018A819B81A0E0B0E0C80ED91EA8
:104B8000EA1EFB1EF501C486D586E686F786898176
:104B900081832D813E81358324838F8198857C019B
:104BA00000E010E0E114F1040105110521F4EC88A6
:104BB000FD880E891F898A819B81A0E0B0E0E81AF8
:104BC000F90A0A0B1B0BE618F7080809190974E023
:104BD000369527957A95E1F7C901A0E0B0E0E81A8B
:104BE000F90A0A0B1B0BF501218130E040E050E08F
:104BF000C801B7010E94462F2E5F3F4F4F4F5F4FB6
:104C0000F5012087318742875387273FFFE03F0721
:104C1000F0E04F07F0E05F0710F481E008C0275F85
:104C20003F4F4040504010F083E001C082E0F5016A
:104C30008083833029F488A199A1AAA1BBA109C0CE
:104C4000F50184859585A685B785860D971DA81DD8
:104C5000B91D808B918BA28BB38BF50184819581DB
:104C600064E0969587956A95E1F7A0E0B0E0248529
:104C7000358546855785820F931FA41FB51F860D66
:104C8000971DA81DB91D848B958BA68BB78B12829F
:104C9000B0928806A092870620E030E005C021E0AF
:104CA00030E002C027E030E0C901A4960FB6F894C6
:104CB000DEBF0FBECDBFCF91DF911F910F91FF904F
:104CC000EF90DF90CF90BF90AF909F908F907F90AC
:104CD0006F90089584B1806A84B92698249A80E5FB
:104CE0008CBD8DB581608DBD08958FEF8EBD0DB4E7
:104CF00007FEFDCF8EB508958EBD0DB407FEFDCF26
:104D00008EB50895DF92EF92FF920F931F93D82EE6
:104D10007A018B0187FF0CC087E740E050E060E03C
:104D200070E00E948226823008F04FC08FE7D822C0
:104D30002C9A8FEF8EBD0DB407FEFDCF8EB52C984B
:104D40008FEF8EBD0DB407FEFDCF8EB5DEBC0DB46A
:104D500007FEFDCF8EB5812F9927AA27BB278EBDD1
:104D60000DB407FEFDCF8EB5C801AA27BB278EBDA7
:104D70000DB407FEFDCF8EB5BB27A12F902F8F2D31
:104D80008EBD0DB407FEFDCF8EB5EEBC0DB407FE93
:104D9000FDCF8EB580E4D81611F485E906C088E40D
:104DA000D81611F487E801C081E08EBD0DB407FE6E
:104DB000FDCF8EB59AE02FEF2EBD0DB407FEFDCFCF
:104DC0008EB587FF02C09150B9F71F910F91FF90E8
:104DD000EF90DF900895EF92FF920F931F93CF9380
:104DE000DF937C01E9018091890683FD07C039E0EA
:104DF000440F551F661F771F3A95D1F781E50E9432
:104E00008226882309F03FC080E395E73FEF3EBD4F
:104E10000DB407FEFDCF2EB52F3F19F4019799F180
:104E2000F6CF2E3F81F5222733272C1B3D0B2E5F1B
:104E30003D4F201B310B209741F08FEF8EBD0DB4FD
:104E400007FEFDCF9EB52197C9F7E114F10479F073
:104E50009FEF9EBD0DB407FEFDCF8EB5F701808399
:104E60000150104021F00894E11CF11CF2CF8FEFAB
:104E70008EBD0DB407FEFDCF9EB521503040C1F769
:104E800020E030E002C021E030E02C9A8FEF8EBDB0
:104E90000DB407FEFDCF8EB5C901DF91CF911F91F3
:104EA0000F91FF90EF900895FC01009711F1209170
:104EB0008A0630918B060BC080818EBD0DB407FE33
:104EC000FDCF31968EB541505040215030404115B4
:104ED000510529F430938B0620938A0607C02115CB
:104EE000310551F710928B0610928A0620E030E0CF
:104EF0005FC0411551056105710531F18091890649
:104F000083FD07C0E9E0440F551F661F771FEA9530
:104F1000D1F788E50E948226882319F021E030E04D
:104F200047C08FEF8EBD0DB407FEFDCF8EB58EEF5F
:104F30008EBD0DB407FEFDCF8EB580E092E090935C
:104F40008B0680938A06D2CF80918A0690918B0639
:104F5000029606C01EBC0DB407FEFDCF2EB501970C
:104F60000097C1F78FEF8EBD0DB407FEFDCF8EB554
:104F70008F718530A1F448EE5DEF9FEF9EBD0DB4BB
:104F800007FEFDCF8EB58F3F31F04115510539F049
:104F900041505040F3CF20E030E0452B11F421E0A8
:104FA00030E02C9A8FEF8EBD0DB407FEFDCF8EB58D
:104FB000C9010895CF92DF92EF92FF920F931F9352
:104FC000DF93CF9300D000D0CDB7DEB72C9A8AE024
:104FD0008A95F1F70E946A262C9908C080E090E03B
:104FE00040E050E060E070E00E94542784E69FEFCC
:104FF0009EBD0DB407FEFDCF2EB58150C9F780E4EC
:1050000040E050E060E070E00E948226813009F0CC
:105010007FC088E44AEA51E060E070E00E948226A6
:10502000813009F04CC06E010894C11CD11C76017E
:105030009FEF9E012B5F3F4F9EBD0DB407FEFDCF3E
:105040008EB5F70181937F01E217F307A9F78B81F2
:10505000813009F05DC08C818A3A09F059C000EEB8
:105060001EE289EE40E050E060E070E40E9482269B
:10507000882309F468C00150104009F449C0F1CFF9
:105080008AE740E050E060E070E00E9482268823DA
:1050900009F03EC09FEF9EBD0DB407FEFDCF8EB55B
:1050A000F60181936F01EE15FF05A9F7898186FD51
:1050B00003C004E0F02E2DC01CE0F12E2AC089EEC2
:1050C00040E050E060E070E00E948226823028F0EC
:1050D000B1E4EB2EFF24F39404C0A9EEEA2EF2E033
:1050E000FF2E08EA11E68E2D40E050E060E070E00F
:1050F0000E948226882351F10150104049F0F3CFDD
:1051000080E540E052E060E070E00E94822681117C
:10511000FF24F09289062C9A8FEF8EBD0DB407FE06
:10512000FDCF8EB580E0FF2009F481E00F900F9055
:105130000F900F90CF91DF911F910F91FF90EF9003
:10514000DF90CF900895012B19F39ACF012B01F333
:10515000D7CFA0E0B0E0EFEAF8E20C94832FDC01B7
:105160002B01FA019C91923008F439C1EB0188813E
:10517000823008F433C1943069F4843009F02FC1CF
:1051800011969C9111978981981709F428C1A2E979
:10519000B1E025C1843009F421C18230A9F49230F4
:1051A00009F01DC19A01AD0188E0EA010990AE0144
:1051B000E90109929E018150C1F7E20189811196AE
:1051C0009C918923818308C1923009F407C112960A
:1051D0002D903C901397EB018A819B811496AD90A2
:1051E000BD90CD90DC901797EC80FD800E811F81E3
:1051F0009101281B390BB90137FF04C066277727B7
:10520000621B730B603271050CF061C0121613063D
:105210006CF537014801062E04C096948794779464
:1052200067940A94D2F721E030E040E050E004C0F7
:10523000220F331F441F551F6A95D2F7215030406B
:10524000404050402E213F2140235123211531055C
:105250004105510521F021E030E040E050E07901C6
:105260008A01E628F728082919293CC0232BD1F107
:10527000260E371E35014601062E04C096948794EB
:10528000779467940A94D2F721E030E040E050E050
:1052900004C0220F331F441F551F6A95D2F72150B7
:1052A0003040404050402A213B214C215D212115B6
:1052B00031054105510521F021E030E040E050E0AA
:1052C00059016A01A628B728C828D9280BC0821519
:1052D00093052CF01C01AA24BB24650103C0EE2415
:1052E000FF24870111969C91D20111968C919817F9
:1052F00009F445C0992339F0A80197012A193B09FF
:105300004C095D0906C0A60195012E193F09400B05
:10531000510B57FD08C011823382228224833583CA
:10532000468357831DC081E0818333822282882790
:105330009927DC01821B930BA40BB50B8483958307
:10534000A683B7830DC0220F331F441F551F24832C
:105350003583468357838281938101979383828328
:105360002481358146815781DA01C9010197A1095C
:10537000B1098F5F9F4FAF4FBF4328F30BC091839D
:1053800033822282EA0CFB1C0C1D1D1DE482F58277
:105390000683178383E0808324813581468157818A
:1053A00057FF1AC0C901AA2797FDA095BA2F81708F
:1053B0009070A070B0705695479537952795822BC1
:1053C000932BA42BB52B84839583A683B7838281EB
:1053D0009381019693838283DF0101C0D201CD01C5
:1053E000CDB7DEB7E2E10C949F2FA0E2B0E0EBEF87
:1053F000F9E20C948F2F69837A838B839C832D83AE
:105400003E834F835887E9E0EE2EF12CEC0EFD1E13
:10541000CE010196B7010E942F2E8E010F5E1F4F05
:10542000CE010596B8010E942F2E8A8991E0892726
:105430008A8BC701B801AE01475E5F4F0E94A92861
:105440000E945A2DA096E6E00C94AB2FA0E2B0E0AB
:10545000ECE2FAE20C948F2F69837A838B839C832E
:105460002D833E834F835887F9E0EF2EF12CEC0E0D
:10547000FD1ECE010196B7010E942F2E8E010F5EF8
:105480001F4FCE010596B8010E942F2EC701B8010B
:10549000AE01475E5F4F0E94A9280E945A2DA09638
:1054A000E6E00C94AB2FA0E2B0E0E9E5FAE20C9460
:1054B000832F69837A838B839C832D833E834F83E1
:1054C0005887CE010196BE01675F7F4F0E942F2E45
:1054D000CE010596BE016F5E7F4F0E942F2E9985EB
:1054E000923088F089898230C8F0943019F4823083
:1054F00051F404C0843029F4923081F482E991E0BF
:10550000C6C0923049F420E09A858A89981321E038
:105510002A87CE010996BBC0823049F420E09A85E3
:105520008A89981321E02A8BCE014196B0C02D8440
:105530003E844F8458886D887E888F88988CEE24AE
:10554000FF248701AA24BB24650140E050E060E00D
:1055500070E0E0E0F0E0C10181709070892BE9F02B
:10556000E60CF71C081D191D9A01AB012A0D3B1D05
:105570004C1D5D1D80E090E0A0E0B0E0E614F70473
:105580000805190520F481E090E0A0E0B0E0BA0140
:10559000A901480F591F6A1F7B1FAA0CBB1CCC1CFA
:1055A000DD1C97FE08C081E090E0A0E0B0E0A82AF2
:1055B000B92ACA2ADB2A3196E032F10549F0660C95
:1055C000771C881C991C5694479437942794C3CF12
:1055D000FA85EA892B893C898B859C85280F391FA0
:1055E0002E5F3F4F17C0CA0181709070892B61F008
:1055F00016950795F794E79480E090E0A0E0B0E876
:10560000E82AF92A0A2B1B2B76956795579547951B
:105610002F5F3F4F77FDE7CF0CC0440F551F661F2C
:10562000771F17FD4160EE0CFF1C001F111F21505A
:105630003040403090E0590790E0690790E47907E6
:1056400060F32B8F3C8FDB01CA018F779070A070C5
:10565000B07080349105A105B10561F447FD0AC021
:10566000E114F1040105110529F0405C5F4F6F4F13
:105670007F4F40781A8EFE1711F081E08A8F4D8F90
:105680005E8F6F8F78A383E0898FCE0149960E9449
:105690005A2DA096E2E10C949F2FA8E1B0E0E3E53B
:1056A000FBE20C948B2F69837A838B839C832D83FD
:1056B0003E834F835887B9E0EB2EF12CEC0EFD1E94
:1056C000CE010196B7010E942F2E8E010F5E1F4F53
:1056D000CE010596B8010E942F2E2985223008F4AC
:1056E0007EC03989323010F4B8017CC08A859A892D
:1056F00089278A87243011F0223031F4231709F0EA
:105700006EC062E971E06EC0343039F41D861E86C9
:105710001F86188A1C861B8604C0323021F484E060
:105720008987B7015FC02B853C858B899C89281BA5
:10573000390B3C872B87ED84FE840F851889AD8853
:10574000BE88CF88D88CEA14FB040C051D0540F4F4
:10575000EE0CFF1C001F111F215030403C872B878F
:1057600020E030E040E050E080E090E0A0E0B0E4F5
:1057700060E070E0EA14FB040C051D0540F0282BE6
:10578000392B4A2B5B2BEA18FB080C091D09B6952F
:10579000A79597958795EE0CFF1C001F111F6F5F53
:1057A0007F4F6F31710531F7DA01C9018F77907042
:1057B000A070B07080349105A105B10561F427FD9A
:1057C0000AC0E114F1040105110529F0205C3F4FE6
:1057D0004F4F5F4F20782D873E874F87588BBE01F4
:1057E000675F7F4FCB010E945A2D6896EAE00C94C8
:1057F000A72FA8E1B0E0EFEFFBE20C948F2F6983B5
:105800007A838B839C832D833E834F83588789E0E3
:10581000E82EF12CEC0EFD1ECE010196B7010E9480
:105820002F2E8E010F5E1F4FCE010596B8010E94EC
:105830002F2E8985823040F08989823028F0C70177
:10584000B8010E94A72E01C08FEF6896E6E00C9485
:10585000AB2FA8E1B0E0EFE2FCE20C948F2F69835C
:105860007A838B839C832D833E834F83588789E083
:10587000E82EF12CEC0EFD1ECE010196B7010E9420
:105880002F2E8E010F5E1F4FCE010596B8010E948C
:105890002F2E8985823040F08989823028F0C70117
:1058A000B8010E94A72E01C081E06896E6E00C9442
:1058B000AB2FA8E0B0E0EFE5FCE20C948C2F9B014D
:1058C000AC0183E08983DA01C9018827B7FD83959C
:1058D0009927AA27BB27B82E211531054105510567
:1058E00019F482E089833AC08823A9F0203080E04F
:1058F000380780E0480780E8580729F460E070E046
:1059000080E09FEC30C0EE24FF248701E21AF30A06
:10591000040B150B02C079018A018EE1C82ED12C2F
:10592000DC82CB82ED82FE820F831887C801B7012B
:105930000E940B2D01971816190684F4082E04C036
:10594000EE0CFF1C001F111F0A94D2F7ED82FE829D
:105950000F831887C81AD90ADC82CB82BA82CE019B
:1059600001960E945A2D2896E9E00C94A82FACE0ED
:10597000B0E0EDEBFCE20C94932F69837A838B8388
:105980009C83CE010196BE016B5F7F4F0E942F2E3C
:105990008D81823061F1823050F1843021F48E812A
:1059A000882351F12EC02F81388537FD20C06E81AC
:1059B0002F3131051CF06623F9F023C08EE190E011
:1059C000821B930B29853A854B855C8504C05695CF
:1059D0004795379527958A95D2F76623B1F050956C
:1059E0004095309521953F4F4F4F5F4F0EC020E0BF
:1059F00030E040E050E009C02FEF3FEF4FEF5FE7AE
:105A000004C020E030E040E050E8B901CA012C9623
:105A1000E2E00C94AF2FEF92FF920F931F937B0164
:105A20008C0180E0E81680E0F80681E0080780E05D
:105A3000180788F48FEFE816F1040105110531F01D
:105A400028F088E090E0A0E0B0E017C080E090E0AF
:105A5000A0E0B0E012C080E0E81680E0F80680E048
:105A6000080781E0180728F088E190E0A0E0B0E0A6
:105A700004C080E190E0A0E0B0E020E230E040E04F
:105A800050E0281B390B4A0B5B0B04C01695079599
:105A9000F794E7948A95D2F7F701E656FE4F808196
:105AA000281B310941095109C9011F910F91FF902C
:105AB000EF900895DF92EF92FF920F931F93FC01F6
:105AC000E480F58006811781D1808081823048F49E
:105AD00080E090E0A0E1B0E0E82AF92A0A2B1B2B35
